{
  "contractName": "TodoList",
  "abi": [
    {
      "inputs": [],
      "payable": false,
      "stateMutability": "nonpayable",
      "type": "constructor"
    },
    {
      "constant": true,
      "inputs": [],
      "name": "taskCount",
      "outputs": [
        {
          "internalType": "uint256",
          "name": "",
          "type": "uint256"
        }
      ],
      "payable": false,
      "stateMutability": "view",
      "type": "function"
    },
    {
      "constant": true,
      "inputs": [
        {
          "internalType": "uint256",
          "name": "",
          "type": "uint256"
        }
      ],
      "name": "tasks",
      "outputs": [
        {
          "internalType": "string",
          "name": "content",
          "type": "string"
        },
        {
          "internalType": "uint256",
          "name": "time",
          "type": "uint256"
        },
        {
          "internalType": "uint256",
          "name": "priority",
          "type": "uint256"
        },
        {
          "internalType": "bool",
          "name": "completed",
          "type": "bool"
        }
      ],
      "payable": false,
      "stateMutability": "view",
      "type": "function"
    },
    {
      "constant": false,
      "inputs": [
        {
          "internalType": "string",
          "name": "_content",
          "type": "string"
        },
        {
          "internalType": "uint256",
          "name": "time",
          "type": "uint256"
        }
      ],
      "name": "createTask",
      "outputs": [],
      "payable": false,
      "stateMutability": "nonpayable",
      "type": "function"
    },
    {
      "constant": false,
      "inputs": [
        {
          "internalType": "uint256",
          "name": "id",
          "type": "uint256"
        }
      ],
      "name": "deleteTask",
      "outputs": [],
      "payable": false,
      "stateMutability": "nonpayable",
      "type": "function"
    }
  ],
  "bytecode": "0x60806040526000805534801561001457600080fd5b506040805180820190915260098152685465737420746f646f60b81b602082015261004890426001600160e01b0361004d16565b61016a565b60008054600190810180835560408051608081018252868152426020808301829052908790038284015260608201869052928552928252909220815180519293919261009c92849201906100cf565b5060208201516001820155604082015160028201556060909101516003909101805460ff19169115159190911790555050565b828054600181600116156101000203166002900490600052602060002090601f016020900481019282601f1061011057805160ff191683800117855561013d565b8280016001018555821561013d579182015b8281111561013d578251825591602001919060010190610122565b5061014992915061014d565b5090565b61016791905b808211156101495760008155600101610153565b90565b610474806101796000396000f3fe608060405234801561001057600080fd5b506004361061004c5760003560e01c806304fe2b3414610051578063560f3192146100fb5780638d97767214610118578063b6cb58a5146101c6575b600080fd5b6100f96004803603604081101561006757600080fd5b81019060208101813564010000000081111561008257600080fd5b82018360208201111561009457600080fd5b803590602001918460018302840111640100000000831117156100b657600080fd5b91908080601f01602080910402602001604051908101604052809392919081815260200183838082843760009201919091525092955050913592506101e0915050565b005b6100f96004803603602081101561011157600080fd5b5035610262565b6101356004803603602081101561012e57600080fd5b50356102a4565b604051808060200185815260200184815260200183151515158152602001828103825286818151815260200191508051906020019080838360005b83811015610188578181015183820152602001610170565b50505050905090810190601f1680156101b55780820380516001836020036101000a031916815260200191505b509550505050505060405180910390f35b6101ce610357565b60408051918252519081900360200190f35b60008054600190810180835560408051608081018252868152426020808301829052908790038284015260608201869052928552928252909220815180519293919261022f928492019061035d565b5060208201516001820155604082015160028201556060909101516003909101805460ff19169115159190911790555050565b60008181526001602052604081209061027b82826103db565b50600060018201819055600282018190556003909101805460ff19169055805460001901905550565b60016020818152600092835260409283902080548451600294821615610100026000190190911693909304601f81018390048302840183019094528383529283918301828280156103365780601f1061030b57610100808354040283529160200191610336565b820191906000526020600020905b81548152906001019060200180831161031957829003601f168201915b50505050600183015460028401546003909401549293909290915060ff1684565b60005481565b828054600181600116156101000203166002900490600052602060002090601f016020900481019282601f1061039e57805160ff19168380011785556103cb565b828001600101855582156103cb579182015b828111156103cb5782518255916020019190600101906103b0565b506103d7929150610422565b5090565b50805460018160011615610100020316600290046000825580601f10610401575061041f565b601f01602090049060005260206000209081019061041f9190610422565b50565b61043c91905b808211156103d75760008155600101610428565b9056fea265627a7a7231582050893c14bd72181e7a78904db6b0d50b216a44644c6f694b164269ba40aca5d964736f6c63430005100032",
  "source": "pragma solidity >=0.4.22 <0.9.0;\r\n\r\ncontract TodoList{\r\n\r\n    uint public taskCount=0;\r\n    struct Task{\r\n        string content;\r\n        uint time;\r\n        uint priority;\r\n        bool completed;\r\n    }\r\n    mapping(uint=>Task) public tasks;\r\n\r\n    constructor() public{\r\n        createTask(\"Test todo\", block.timestamp);\r\n    }\r\n\r\n    function createTask(string memory _content,uint time) public{\r\n        taskCount++;\r\n        tasks[taskCount]=Task(_content,block.timestamp,block.timestamp-time,false);\r\n    }\r\n\r\n    function deleteTask(uint id) public{\r\n        delete tasks[id];\r\n        taskCount--;\r\n    }\r\n}",
  "sourcePath": "C:\\Users\\divij\\todo-may-hackathon\\contracts\\Todo.sol",
  "compiler": {
    "name": "solc",
    "version": "0.5.16+commit.9c3226ce.Emscripten.clang"
  },
  "schemaVersion": "3.4.4",
  "updatedAt": "2022-05-14T12:02:09.861Z",
  "devdoc": {
    "methods": {}
  },
  "userdoc": {
    "methods": {}
  }
}