{
  "contractName": "TodoList",
  "abi": [
    {
      "inputs": [],
      "payable": false,
      "stateMutability": "nonpayable",
      "type": "constructor"
    },
    {
      "anonymous": false,
      "inputs": [
        {
          "indexed": false,
          "internalType": "uint256",
          "name": "id",
          "type": "uint256"
        },
        {
          "indexed": false,
          "internalType": "string",
          "name": "_content",
          "type": "string"
        },
        {
          "indexed": false,
          "internalType": "uint256",
          "name": "time",
          "type": "uint256"
        },
        {
          "indexed": false,
          "internalType": "uint256",
          "name": "priority",
          "type": "uint256"
        },
        {
          "indexed": false,
          "internalType": "bool",
          "name": "completed",
          "type": "bool"
        }
      ],
      "name": "TaskEvent",
      "type": "event"
    },
    {
      "constant": true,
      "inputs": [],
      "name": "taskCount",
      "outputs": [
        {
          "internalType": "uint256",
          "name": "",
          "type": "uint256"
        }
      ],
      "payable": false,
      "stateMutability": "view",
      "type": "function"
    },
    {
      "constant": true,
      "inputs": [
        {
          "internalType": "uint256",
          "name": "",
          "type": "uint256"
        }
      ],
      "name": "tasks",
      "outputs": [
        {
          "internalType": "uint256",
          "name": "id",
          "type": "uint256"
        },
        {
          "internalType": "string",
          "name": "content",
          "type": "string"
        },
        {
          "internalType": "uint256",
          "name": "time",
          "type": "uint256"
        },
        {
          "internalType": "uint256",
          "name": "priority",
          "type": "uint256"
        },
        {
          "internalType": "bool",
          "name": "completed",
          "type": "bool"
        }
      ],
      "payable": false,
      "stateMutability": "view",
      "type": "function"
    },
    {
      "constant": false,
      "inputs": [
        {
          "internalType": "string",
          "name": "_content",
          "type": "string"
        },
        {
          "internalType": "uint256",
          "name": "time",
          "type": "uint256"
        }
      ],
      "name": "createTask",
      "outputs": [],
      "payable": false,
      "stateMutability": "nonpayable",
      "type": "function"
    },
    {
      "constant": false,
      "inputs": [
        {
          "internalType": "uint256",
          "name": "id",
          "type": "uint256"
        }
      ],
      "name": "deleteTask",
      "outputs": [],
      "payable": false,
      "stateMutability": "nonpayable",
      "type": "function"
    }
  ],
  "bytecode": "0x60806040526000805534801561001457600080fd5b506040805180820190915260098152685465737420746f646f60b81b602082015261004890426001600160e01b0361004d16565b61025e565b6000805460019081018083556040805160a08101825282815260208082018881524283850181905288900360608401819052608084018890529487528582529290952081518155915180519395919492936100af9385019291909101906101c3565b50604082015181600201556060820151816003015560808201518160040160006101000a81548160ff0219169083151502179055509050507fb46168a684a97f0eb34a28d8ead5d2c552eb049e716a85aab3d3e8547512ee2660005484600160008054815260200190815260200160002060020154846000604051808681526020018060200185815260200184815260200183151515158152602001828103825286818151815260200191508051906020019080838360005b83811015610180578181015183820152602001610168565b50505050905090810190601f1680156101ad5780820380516001836020036101000a031916815260200191505b50965050505050505060405180910390a1505050565b828054600181600116156101000203166002900490600052602060002090601f016020900481019282601f1061020457805160ff1916838001178555610231565b82800160010185558215610231579182015b82811115610231578251825591602001919060010190610216565b5061023d929150610241565b5090565b61025b91905b8082111561023d5760008155600101610247565b90565b6105818061026d6000396000f3fe608060405234801561001057600080fd5b506004361061004c5760003560e01c806304fe2b3414610051578063560f3192146100fb5780638d97767214610118578063b6cb58a5146101cd575b600080fd5b6100f96004803603604081101561006757600080fd5b81019060208101813564010000000081111561008257600080fd5b82018360208201111561009457600080fd5b803590602001918460018302840111640100000000831117156100b657600080fd5b91908080601f01602080910402602001604051908101604052809392919081815260200183838082843760009201919091525092955050913592506101e7915050565b005b6100f96004803603602081101561011157600080fd5b503561035d565b6101356004803603602081101561012e57600080fd5b50356103a7565b604051808681526020018060200185815260200184815260200183151515158152602001828103825286818151815260200191508051906020019080838360005b8381101561018e578181015183820152602001610176565b50505050905090810190601f1680156101bb5780820380516001836020036101000a031916815260200191505b50965050505050505060405180910390f35b6101d5610464565b60408051918252519081900360200190f35b6000805460019081018083556040805160a081018252828152602080820188815242838501819052889003606084018190526080840188905294875285825292909520815181559151805193959194929361024993850192919091019061046a565b50604082015181600201556060820151816003015560808201518160040160006101000a81548160ff0219169083151502179055509050507fb46168a684a97f0eb34a28d8ead5d2c552eb049e716a85aab3d3e8547512ee2660005484600160008054815260200190815260200160002060020154846000604051808681526020018060200185815260200184815260200183151515158152602001828103825286818151815260200191508051906020019080838360005b8381101561031a578181015183820152602001610302565b50505050905090810190601f1680156103475780820380516001836020036101000a031916815260200191505b50965050505050505060405180910390a1505050565b60008181526001602081905260408220828155919061037e908301826104e8565b50600060028201819055600382018190556004909101805460ff19169055805460001901905550565b600160208181526000928352604092839020805481840180548651600296821615610100026000190190911695909504601f810185900485028601850190965285855290949193929091908301828280156104435780601f1061041857610100808354040283529160200191610443565b820191906000526020600020905b81548152906001019060200180831161042657829003601f168201915b50505050600283015460038401546004909401549293909290915060ff1685565b60005481565b828054600181600116156101000203166002900490600052602060002090601f016020900481019282601f106104ab57805160ff19168380011785556104d8565b828001600101855582156104d8579182015b828111156104d85782518255916020019190600101906104bd565b506104e492915061052f565b5090565b50805460018160011615610100020316600290046000825580601f1061050e575061052c565b601f01602090049060005260206000209081019061052c919061052f565b50565b61054991905b808211156104e45760008155600101610535565b9056fea265627a7a72315820280285eadda84566abd47b2d21900137eabdd5ac4a19267675d3d98d7393878264736f6c63430005100032",
  "source": "pragma solidity >=0.4.22 <0.9.0;\r\n\r\ncontract TodoList{\r\n\r\n    uint public taskCount=0;\r\n    struct Task{\r\n        uint id;\r\n        string content;\r\n        uint time;\r\n        uint priority;\r\n        bool completed;\r\n    }\r\n\r\n    event TaskEvent(uint id,string _content,uint time,uint priority,bool completed);\r\n\r\n\r\n    mapping(uint=>Task) public tasks;\r\n\r\n    constructor() public{\r\n        createTask(\"Test todo\", block.timestamp);\r\n    }\r\n\r\n    function createTask(string memory _content,uint time) public{\r\n        taskCount++;\r\n        uint priority=block.timestamp-time;\r\n        tasks[taskCount]=Task(taskCount,_content,block.timestamp,priority,false);\r\n        emit TaskEvent(taskCount,_content,tasks[taskCount].time,priority,false);\r\n    }\r\n\r\n    function deleteTask(uint id) public{\r\n        delete tasks[id];\r\n        taskCount--;\r\n    }\r\n}",
  "sourcePath": "C:\\Users\\divij\\todo-may-hackathon\\contracts\\TodoList.sol",
  "compiler": {
    "name": "solc",
    "version": "0.5.16+commit.9c3226ce.Emscripten.clang"
  },
  "schemaVersion": "3.4.4",
  "updatedAt": "2022-05-14T16:54:16.631Z",
  "networkType": "ethereum",
  "devdoc": {
    "methods": {}
  },
  "userdoc": {
    "methods": {}
  }
}